{
  "_format": "hh-sol-artifact-1",
  "contractName": "Comments",
  "sourceName": "contracts/Comments.sol",
  "abi": [
    {
      "anonymous": false,
      "inputs": [
        {
          "components": [
            {
              "internalType": "uint32",
              "name": "id",
              "type": "uint32"
            },
            {
              "internalType": "string",
              "name": "topic",
              "type": "string"
            },
            {
              "internalType": "address",
              "name": "creator_address",
              "type": "address"
            },
            {
              "internalType": "string",
              "name": "message",
              "type": "string"
            },
            {
              "internalType": "uint256",
              "name": "created_at",
              "type": "uint256"
            }
          ],
          "indexed": false,
          "internalType": "struct Comments.Comment",
          "name": "comment",
          "type": "tuple"
        }
      ],
      "name": "CommentAdded",
      "type": "event"
    },
    {
      "inputs": [
        {
          "internalType": "string",
          "name": "topic",
          "type": "string"
        },
        {
          "internalType": "string",
          "name": "message",
          "type": "string"
        }
      ],
      "name": "addComment",
      "outputs": [],
      "stateMutability": "nonpayable",
      "type": "function"
    },
    {
      "inputs": [
        {
          "internalType": "string",
          "name": "topic",
          "type": "string"
        }
      ],
      "name": "getComments",
      "outputs": [
        {
          "components": [
            {
              "internalType": "uint32",
              "name": "id",
              "type": "uint32"
            },
            {
              "internalType": "string",
              "name": "topic",
              "type": "string"
            },
            {
              "internalType": "address",
              "name": "creator_address",
              "type": "address"
            },
            {
              "internalType": "string",
              "name": "message",
              "type": "string"
            },
            {
              "internalType": "uint256",
              "name": "created_at",
              "type": "uint256"
            }
          ],
          "internalType": "struct Comments.Comment[]",
          "name": "",
          "type": "tuple[]"
        }
      ],
      "stateMutability": "view",
      "type": "function"
    }
  ],
  "bytecode": "0x608060405234801561001057600080fd5b50610b49806100206000396000f3fe608060405234801561001057600080fd5b50600436106100365760003560e01c806370c63fcc1461003b578063ae5ff9051461006b575b600080fd5b61005560048036038101906100509190610605565b610087565b60405161006291906108fa565b60405180910390f35b61008560048036038101906100809190610652565b6102b1565b005b60606001838360405161009b9291906108e1565b9081526020016040518091039020805480602002602001604051908101604052809291908181526020016000905b828210156102a557838290600052602060002090600502016040518060a00160405290816000820160009054906101000a900463ffffffff1663ffffffff1663ffffffff16815260200160018201805461012290610a2c565b80601f016020809104026020016040519081016040528092919081815260200182805461014e90610a2c565b801561019b5780601f106101705761010080835404028352916020019161019b565b820191906000526020600020905b81548152906001019060200180831161017e57829003601f168201915b505050505081526020016002820160009054906101000a900473ffffffffffffffffffffffffffffffffffffffff1673ffffffffffffffffffffffffffffffffffffffff1673ffffffffffffffffffffffffffffffffffffffff16815260200160038201805461020a90610a2c565b80601f016020809104026020016040519081016040528092919081815260200182805461023690610a2c565b80156102835780601f1061025857610100808354040283529160200191610283565b820191906000526020600020905b81548152906001019060200180831161026657829003601f168201915b50505050508152602001600482015481525050815260200190600101906100c9565b50505050905092915050565b60006040518060a0016040528060008054906101000a900463ffffffff1663ffffffff16815260200186868080601f016020809104026020016040519081016040528093929190818152602001838380828437600081840152601f19601f8201169050808301925050505050505081526020013373ffffffffffffffffffffffffffffffffffffffff16815260200184848080601f016020809104026020016040519081016040528093929190818152602001838380828437600081840152601f19601f820116905080830192505050505050508152602001428152509050600185856040516103a29291906108e1565b908152602001604051809103902081908060018154018082558091505060019003906000526020600020906005020160009091909190915060008201518160000160006101000a81548163ffffffff021916908363ffffffff160217905550602082015181600101908051906020019061041d92919061050c565b5060408201518160020160006101000a81548173ffffffffffffffffffffffffffffffffffffffff021916908373ffffffffffffffffffffffffffffffffffffffff160217905550606082015181600301908051906020019061048192919061050c565b5060808201518160040155505060008081819054906101000a900463ffffffff16809291906104af90610a5e565b91906101000a81548163ffffffff021916908363ffffffff160217905550507fe77ab75f376cc3dcd9506272f00c91ec2ff78acb373dc7b53aedecb1da207022816040516104fd919061091c565b60405180910390a15050505050565b82805461051890610a2c565b90600052602060002090601f01602090048101928261053a5760008555610581565b82601f1061055357805160ff1916838001178555610581565b82800160010185558215610581579182015b82811115610580578251825591602001919060010190610565565b5b50905061058e9190610592565b5090565b5b808211156105ab576000816000905550600101610593565b5090565b60008083601f8401126105c5576105c4610aee565b5b8235905067ffffffffffffffff8111156105e2576105e1610ae9565b5b6020830191508360018202830111156105fe576105fd610af3565b5b9250929050565b6000806020838503121561061c5761061b610afd565b5b600083013567ffffffffffffffff81111561063a57610639610af8565b5b610646858286016105af565b92509250509250929050565b6000806000806040858703121561066c5761066b610afd565b5b600085013567ffffffffffffffff81111561068a57610689610af8565b5b610696878288016105af565b9450945050602085013567ffffffffffffffff8111156106b9576106b8610af8565b5b6106c5878288016105af565b925092505092959194509250565b60006106df83836107c9565b905092915050565b6106f08161099e565b82525050565b60006107018261094e565b61070b8185610971565b93508360208202850161071d8561093e565b8060005b85811015610759578484038952815161073a85826106d3565b945061074583610964565b925060208a01995050600181019050610721565b50829750879550505050505092915050565b60006107778385610993565b93506107848385846109ea565b82840190509392505050565b600061079b82610959565b6107a58185610982565b93506107b58185602086016109f9565b6107be81610b02565b840191505092915050565b600060a0830160008301516107e160008601826108d2565b50602083015184820360208601526107f98282610790565b915050604083015161080e60408601826106e7565b50606083015184820360608601526108268282610790565b915050608083015161083b60808601826108c3565b508091505092915050565b600060a08301600083015161085e60008601826108d2565b50602083015184820360208601526108768282610790565b915050604083015161088b60408601826106e7565b50606083015184820360608601526108a38282610790565b91505060808301516108b860808601826108c3565b508091505092915050565b6108cc816109d0565b82525050565b6108db816109da565b82525050565b60006108ee82848661076b565b91508190509392505050565b6000602082019050818103600083015261091481846106f6565b905092915050565b600060208201905081810360008301526109368184610846565b905092915050565b6000819050602082019050919050565b600081519050919050565b600081519050919050565b6000602082019050919050565b600082825260208201905092915050565b600082825260208201905092915050565b600081905092915050565b60006109a9826109b0565b9050919050565b600073ffffffffffffffffffffffffffffffffffffffff82169050919050565b6000819050919050565b600063ffffffff82169050919050565b82818337600083830152505050565b60005b83811015610a175780820151818401526020810190506109fc565b83811115610a26576000848401525b50505050565b60006002820490506001821680610a4457607f821691505b60208210811415610a5857610a57610aba565b5b50919050565b6000610a69826109da565b915063ffffffff821415610a8057610a7f610a8b565b5b600182019050919050565b7f4e487b7100000000000000000000000000000000000000000000000000000000600052601160045260246000fd5b7f4e487b7100000000000000000000000000000000000000000000000000000000600052602260045260246000fd5b600080fd5b600080fd5b600080fd5b600080fd5b600080fd5b6000601f19601f830116905091905056fea2646970667358221220de1c9e81de8e69cd77841212b56afe4617a824fe179ecdfdbebda6b98d2e060964736f6c63430008070033",
  "linkReferences": {},
  "deployedLinkReferences": {}
}